:100000000C9435000C945D000C945D000C945D0024
:100010000C945D000C945D000C945D000C945D00EC
:100020000C945D000C945D000C945D000C945D00DC
:100030000C945D000C945D000C945D000C945D00CC
:100040000C94FC030C945D000C9457020C948902F0
:100050000C945D000C945D000C945D000C945D00AC
:100060000C945D000C945D00B90211241FBECFEF0B
:10007000D8E0DEBFCDBF11E0A0E0B1E0E4EFFBE0EF
:1000800002C005900D92AC3CB107D9F725E0ACEC6D
:10009000B1E001C01D92A337B207E1F710E0CAE654
:1000A000D0E004C02297FE010E94CD04C836D107DB
:1000B000C9F70E94FD020C94F8050C94000026E09C
:1000C00040E855E260E070E089EC94E00C94F501C2
:1000D00080528B3548F4E82FF0E0EE0FFF1FEA5F07
:1000E000FE4F80819181089580E090E008952F92E5
:1000F0003F924F925F926F927F928F929F92AF92B8
:10010000BF92CF92DF92EF92FF920F931F93CF9304
:10011000DF9300D01F92CDB7DEB73AE8C32E34E0AC
:10012000D32E1B821A824AE0442E512C55E0A52E74
:10013000B12C64E0862E912C89EC94E00E9412018F
:1001400097FD5AC089EC94E00E942B01282F8093E0
:10015000C80429830E9468008C019093C70480938F
:10016000C60429812F3F41F3F601819391936F01DA
:100170002A3009F441C06A807B80660C771CC30179
:1001800082539E4F3C01E12CF12C1016110634F5E0
:10019000C801B2010E9481048B011C0182E090E041
:1001A0000E94D1049093CD018093CC01FC01318257
:1001B00020824AE050E0B10189EC94E00E94F4030F
:1001C000F301EE0DFF1DB382A2828A819B8102960C
:1001D0009B838A8394E0E90EF11CD7CFEA81FB81EF
:1001E000EE0FFF1FE253FE4F91828082EA81FB8176
:1001F0003196FB83EA83A0CF0F900F900F90DF9191
:10020000CF911F910F91FF90EF90DF90CF90BF9013
:10021000AF909F908F907F906F905F904F903F90A6
:100220002F900895FC01818D228D90E0805C9F4F7E
:10023000821B91098F7399270895FC01918D828DFE
:10024000981731F0828DE80FF11D858D90E00895AB
:100250008FEF9FEF0895FC01918D828D981761F0CB
:10026000828DDF01A80FB11D5D968C91928D9F5FED
:100270009F73928F90E008958FEF9FEF08958FEA1C
:1002800092E0892B49F080E090E0892B29F00E94D0
:10029000AF0281110C9400000895FC01848DDF01F0
:1002A000A80FB11DA35ABF4F2C91848D90E00196E9
:1002B0008F739927848FA689B7892C93A089B189D8
:1002C0008C9180648C93938D848D981306C00288E2
:1002D000F389E02D80818F7D80830895CF93DF9314
:1002E000EC01888D8823C9F0EA89FB89808185FD2E
:1002F00005C0A889B9898C9186FD0FC00FB607FC8F
:10030000F5CF808185FFF2CFA889B9898C9185FFCF
:10031000EDCFCE010E944D01E7CFDF91CF9108953F
:10032000CF92DF92FF920F931F93CF93DF931F9291
:10033000CDB7DEB76C0181E0D60158968C93589703
:100340005B969C915B975C968C915C97981307C029
:100350005096ED91FC915197808185FD2EC0F6015C
:10036000038D10E00F5F1F4F0F731127F02EF60162
:10037000848DF81211C00FB607FCF9CFD601509644
:10038000ED91FC915197808185FFF1CFC601698382
:100390000E944D016981EBCF838DE80FF11DE35A77
:1003A000FF4F6083D6015B960C935B975296ED915D
:1003B000FC915397808180620CC0D6015696ED91D6
:1003C000FC91579760835096ED91FC9151978081F5
:1003D0008064808381E090E00F90DF91CF911F9146
:1003E0000F91FF90DF90CF900895BF92CF92DF9250
:1003F000EF92FF92CF93DF93EC016A017B01B22E63
:10040000E889F98982E08083411581EE580761050A
:100410007105A1F060E079E08DE390E0A70196011D
:100420000E9495042150310941095109569547957B
:1004300037952795211580E1380798F0E889F989E3
:10044000108260E874E88EE190E0A70196010E94B6
:100450009504215031094109510956954795379521
:100460002795EC85FD853083EE85FF852083188EEA
:10047000EC89FD89B082EA89FB8980818061808373
:10048000EA89FB89808188608083EA89FB89808191
:1004900080688083EA89FB8980818F7D8083DF91FA
:1004A000CF91FF90EF90DF90CF90BF9008951F9273
:1004B0000F920FB60F9211242F938F939F93EF9368
:1004C000FF93E091D904F091DA048081E091DF0498
:1004D000F091E00482FD12C090818091E2048F5F70
:1004E0008F732091E304821751F0E091E204F0E071
:1004F000E753FB4F958F8093E20401C08081FF9109
:10050000EF919F918F912F910F900FBE0F901F90A1
:1005100018951F920F920FB60F9211242F933F93AD
:100520004F935F936F937F938F939F93AF93BF93FB
:10053000EF93FF9389EC94E00E944D01FF91EF91BE
:10054000BF91AF919F918F917F916F915F914F91EB
:100550003F912F910F900FBE0F901F90189589EC2F
:1005600094E00E94120121E0892B09F420E0822FFF
:1005700008951092CC041092CB0488EE93E0A0E092
:10058000B0E08093CD049093CE04A093CF04B093B9
:10059000D00480EC91E09093CA048093C90485EC68
:1005A00090E09093D6048093D50484EC90E09093EF
:1005B000D8048093D70480EC90E09093DA04809381
:1005C000D90481EC90E09093DC048093DB0482EC0E
:1005D00090E09093DE048093DD0486EC90E09093AD
:1005E000E0048093DF041092E2041092E30410927E
:1005F000E4041092E504089508950E9446040E94C0
:10060000FC020E945F00CFE3D1E00E9477002097B8
:10061000E1F30E943F01F9CFCF92DF92EF92FF9278
:100620000F931F93CF93DF936C017A01EB01E60EDA
:10063000F71E00E010E0CE15DF0561F06991D601EC
:10064000ED91FC910190F081E02DC6010995080F14
:10065000191FF1CFC801DF91CF911F910F91FF902A
:10066000EF90DF90CF9008956115710581F0DB0167
:100670000D900020E9F7AD0141505109461B570B81
:10068000DC01ED91FC910280F381E02D099480E082
:1006900090E00895DC01ED91FC910190F081E02D56
:1006A00009948F929F92AF92BF92CF92DF92EF9276
:1006B000FF920F931F93CF93DF93CDB7DEB7A19730
:1006C0000FB6F894DEBF0FBECDBF7C01C42EE52F60
:1006D000CB01D22E19A221E02D1510F02AE0D22E46
:1006E0008E010F5D1F4F8D2C912CA12CB12C6C2DE8
:1006F0007E2FA50194010E9495048C2DD29E801915
:100700001124015011098A3014F4805D01C0895C04
:10071000F8018083211531054105510521F0C22ED4
:10072000E32FCA01E4CFB801C7010E943403A196A8
:100730000FB6F894DEBF0FBECDBFDF91CF911F91F2
:100740000F91FF90EF90DF90CF90BF90AF909F9070
:100750008F900895CF92DF92EF92FF920F931F93A5
:10076000CF93DF93EC016A017B012115310579F408
:10077000E881F9810190F081E02D642FDF91CF9124
:100780001F910F91FF90EF90DF90CF9009942A3046
:100790003105E9F477FF1AC06DE20E944A038C012B
:1007A00044275527BA014C195D096E097F092AE0D3
:1007B000CE010E945103800F911FDF91CF911F91B5
:1007C0000F91FF90EF90DF90CF9008952AE0B7014E
:1007D000A601CE01DF91CF911F910F91FF90EF9075
:1007E000DF90CF900C9451039A01AB01662757FD1F
:1007F0006095762F0C94AA031F920F920FB60F925A
:1008000011242F933F938F939F93AF93BF93809126
:10081000670590916805A0916905B0916A053091CE
:10082000660523E0230F2D3720F40196A11DB11D8D
:1008300005C026E8230F0296A11DB11D2093660571
:100840008093670590936805A0936905B0936A0546
:1008500080916B0590916C05A0916D05B0916E052E
:100860000196A11DB11D80936B0590936C05A0931B
:100870006D05B0936E05BF91AF919F918F913F91A0
:100880002F910F900FBE0F901F901895789484B5FC
:10089000826084BD84B5816084BD85B5826085BD7C
:1008A00085B5816085BDEEE6F0E080818160808362
:1008B000E1E8F0E010828081826080838081816045
:1008C0008083E0E8F0E0808181608083E1EBF0E00C
:1008D000808184608083E0EBF0E0808181608083B0
:1008E000EAE7F0E080818460808380818260808399
:1008F0008081816080838081806880831092C100C4
:10090000089597FB072E16F4009407D077FD09D0C1
:100910000E94B70407FC05D03EF4909581959F4F47
:100920000895709561957F4F0895A1E21A2EAA1B34
:10093000BB1BFD010DC0AA1FBB1FEE1FFF1FA2178F
:10094000B307E407F50720F0A21BB30BE40BF50B8C
:10095000661F771F881F991F1A9469F76095709515
:10096000809590959B01AC01BD01CF010895AA1B14
:10097000BB1B51E107C0AA1FBB1FA617B70710F08A
:10098000A61BB70B881F991F5A95A9F780959095BC
:10099000BC01CD010895EE0FFF1F0590F491E02DED
:1009A0000994CF93DF938230910510F482E090E0B8
:1009B000E0917105F091720520E030E0A0E0B0E038
:1009C000309739F14081518148175907B8F04817DD
:1009D000590771F482819381109729F013969C93A3
:1009E0008E9312972CC0909372058093710527C047
:1009F0002115310531F04217530718F0A901DB0129
:100A000001C0EF019A01BD01DF010280F381E02DF9
:100A1000D7CF21153105F9F0281B390B24303105CA
:100A200080F48A819B816115710521F0FB0193831C
:100A3000828304C09093720580937105FE01329603
:100A400044C0FE01E20FF31F8193919322503109BC
:100A5000398328833AC020916F0530917005232B8C
:100A600041F42091020130910301309370052093ED
:100A70006F0520910001309101012115310541F4EC
:100A80002DB73EB74091040150910501241B350B51
:100A9000E0916F05F0917005E217F307A0F42E1BAB
:100AA0003F0B2817390778F0AC014E5F5F4F2417D2
:100AB000350748F04E0F5F1F5093700540936F0548
:100AC0008193919302C0E0E0F0E0CF01DF91CF91FC
:100AD0000895CF93DF93009709F487C0FC01329704
:100AE00013821282C0917105D0917205209781F412
:100AF00020813181280F391F80916F0590917005F9
:100B00008217930779F5F0937005E0936F056DC038
:100B1000DE0120E030E0AE17BF0750F412964D9191
:100B20005C9113979D014115510509F1DA01F3CF4D
:100B3000B383A28340815181840F951F8A179B073D
:100B400071F48D919C911197840F951F029691835A
:100B5000808312968D919C911397938382832115A4
:100B6000310529F4F0937205E09371053EC0D90177
:100B70001396FC93EE9312974D915D91A40FB51FC0
:100B8000EA17FB0779F480819181840F951F029603
:100B9000D90111969C938E938281938113969C9395
:100BA0008E931297E0E0F0E08A819B81009719F024
:100BB000FE01EC01F9CFCE01029628813981820F26
:100BC000931F20916F05309170052817390769F43C
:100BD000309729F4109272051092710502C01382A9
:100BE0001282D0937005C0936F05DF91CF91089565
:040BF000F894FFCFA7
:100BF40000007305800003000000000000000000F6
:100C040000000000000000000000000000000000E0
:100C140000000000000000000000000000000000D0
:100C240000000000000000000000000000000000C0
:100C3400000000000000000015005804BC0470000F
:100C44000100BB047A0057040B00AD08D400610412
:100C540016000C00DE00C5044A0879006F0002008B
:100C6400D3003F08DD004008A4086204000000002F
:100C7400000000000000000015005804BC047000CF
:100C84000100BB047A0057040B00AD08D4006104D2
:100C940016000C00DE00C5044A0879006F0002004B
:100CA400D3003F08DD004008A408620400000000EF
:0C0CB40090010C0312012B011D016E01C8
:00000001FF
